:1000000012C02CC07CC02AC029C028C027C026C06E
:1000100025C024C023C022C021C020C01FC01EC0D4
:100020001DC01CC01BC011241FBECFE5D4E0DEBF25
:10003000CDBF10E0A0E6B0E0ECE0F4E002C0059037
:100040000D92A636B107D9F710E0A6E6B0E001C0E0
:100050001D92A937B107E1F702D0D6C1D1CFCF9217
:10006000DF92EF92FF921F93DF93CF930F92CDB762
:10007000DEB7B89AC09881E060E670E041D178942C
:1000800088EE93E028EC30E0F9013197F1F7019721
:10009000D9F710E06E010894C11CD11C88ECE82E41
:1000A000F12C86E690E0B6017CD089818823C9F3E3
:1000B000812F90E0019610916600212F30E0821789
:1000C000930779F7C09A84EF91E0F7013197F1F740
:1000D0000197D9F7C098E5CF0F931F93062FC298C9
:1000E000803230F4806270D1182F802F6DD102C021
:1000F0006BD1182FC29A812F1F910F9108951F92D3
:100100000F920FB60F9211242F933F934F935F934B
:100110006F937F938F939F93AF93BF93EF93FF93CF
:1001200087E060E7D9DF282F86FF03C081E0809356
:10013000770025FF03C081E08093760024FF03C091
:1001400081E080937800FF91EF91BF91AF919F91F3
:100150008F917F916F915F914F913F912F910F9070
:100160000FBE0F901F9018951F93CF93DF93EB0155
:10017000142FC298886A28D103C0899125D11150C3
:100180001123D9F7C29ADF91CF911F9108951F9340
:10019000182FC29819D180E017D1C29A812F1F91D0
:1001A00008959F92AF92BF92CF92DF92EF92FF920B
:1001B0000F931F93CF93DF93982EC92E5B01FB0102
:1001C000108280917700813011F080E02EC0109273
:1001D00077008FEF60E080DFE82EE694F7E0EF2213
:1001E000EF1619F4DD24FF2407C080E6D0DFF82ED7
:1001F000C29881E6E9D0DF2C892D9C2D9C01E90174
:1002000004C080E0E1D08993FA94FF20D1F7C29A2C
:10021000CD2DD0E01E2D00E0C02BD12B87E1B7DF24
:1002200080FFD7CFF501C0838D2FDF91CF911F9134
:100230000F91FF90EF90DF90CF90BF90AF909F9085
:1002400008950F931F93CF93DF93182FEB01042F83
:10025000863041F0873018F4823098F403C087303C
:1002600081F408C083E093DF082F0E5FC298812FCE
:10027000865D02C0C29880EAA7D003C08991A4D04D
:1002800001500023D9F7C29ADF91CF911F910F91AE
:1002900008951F93CF93DF93EC01162F87E177DF4B
:1002A00085FF02C082E018C087E0BE01412FC9DF90
:1002B000C19A88EC90E00197F1F7C198809176009F
:1002C000813021F41092760080E006C080917800A1
:1002D0008130A1F710927800DF91CF911F9108959E
:1002E000FB01863018F4823038F402C0863039F4CD
:1002F000BF0140E0A6DF0895865F6081EDDE0895CE
:10030000FF920F931F93F82E8B01B99A80E060E063
:1003100048D085B7877F85BF85B78B7F85BF8BB773
:1003200080688BBF83E063E0D7DE86E0B801D8DF6A
:1003300080E0B801D5DF82E061E0CEDE81E061E0FF
:10034000CBDE81E0F81619F481E160E1C5DE80E5DD
:1003500060E0C2DE83E760E0BFDE8DE160E0BCDE2E
:1003600084E06FE1B9DE86E012DF682F617D6E60A8
:1003700086E0B2DE85E068E2AFDE81E0F81611F4D7
:100380006FE001C06EE080E0A7DE81E0F81609F4BE
:10039000C19A80E197E20197F1F71F910F91FF90C9
:1003A000089597B3986297BBBA9AC29A880F880F3C
:1003B00080658DB99DB1862F8370892B8DB962FFC1
:1003C00002C081E08EB908958FB9779BFECF8FB1BF
:1003D0000895FC0108C080818FB9779BFECF3196CC
:1003E0008FB16150704061157105A9F70895FC0146
:1003F00007C01FB8779BFECF8FB1819361507040CB
:0C04000061157105B1F70895F894FFCF65
:06040C00112233445500EB
:00000001FF
